{
  "address": "0xb22742948c4AA488B991E5047e553DfDa8Ec2cdC",
  "abi": [
    {
      "inputs": [],
      "stateMutability": "nonpayable",
      "type": "constructor"
    },
    {
      "anonymous": false,
      "inputs": [
        {
          "indexed": true,
          "internalType": "address",
          "name": "previousOwner",
          "type": "address"
        },
        {
          "indexed": true,
          "internalType": "address",
          "name": "newOwner",
          "type": "address"
        }
      ],
      "name": "OwnershipTransferred",
      "type": "event"
    },
    {
      "inputs": [
        {
          "components": [
            {
              "internalType": "address",
              "name": "enforcer",
              "type": "address"
            },
            {
              "internalType": "bytes",
              "name": "terms",
              "type": "bytes"
            }
          ],
          "internalType": "struct Caveat[]",
          "name": "_input",
          "type": "tuple[]"
        }
      ],
      "name": "GET_CAVEAT_ARRAY_PACKETHASH",
      "outputs": [
        {
          "internalType": "bytes32",
          "name": "",
          "type": "bytes32"
        }
      ],
      "stateMutability": "pure",
      "type": "function"
    },
    {
      "inputs": [
        {
          "components": [
            {
              "internalType": "address",
              "name": "enforcer",
              "type": "address"
            },
            {
              "internalType": "bytes",
              "name": "terms",
              "type": "bytes"
            }
          ],
          "internalType": "struct Caveat",
          "name": "_input",
          "type": "tuple"
        }
      ],
      "name": "GET_CAVEAT_PACKETHASH",
      "outputs": [
        {
          "internalType": "bytes32",
          "name": "",
          "type": "bytes32"
        }
      ],
      "stateMutability": "pure",
      "type": "function"
    },
    {
      "inputs": [
        {
          "components": [
            {
              "internalType": "address",
              "name": "delegate",
              "type": "address"
            },
            {
              "internalType": "bytes32",
              "name": "authority",
              "type": "bytes32"
            },
            {
              "components": [
                {
                  "internalType": "address",
                  "name": "enforcer",
                  "type": "address"
                },
                {
                  "internalType": "bytes",
                  "name": "terms",
                  "type": "bytes"
                }
              ],
              "internalType": "struct Caveat[]",
              "name": "caveats",
              "type": "tuple[]"
            }
          ],
          "internalType": "struct Delegation",
          "name": "_input",
          "type": "tuple"
        }
      ],
      "name": "GET_DELEGATION_PACKETHASH",
      "outputs": [
        {
          "internalType": "bytes32",
          "name": "",
          "type": "bytes32"
        }
      ],
      "stateMutability": "pure",
      "type": "function"
    },
    {
      "inputs": [
        {
          "components": [
            {
              "components": [
                {
                  "components": [
                    {
                      "internalType": "address",
                      "name": "to",
                      "type": "address"
                    },
                    {
                      "internalType": "uint256",
                      "name": "gasLimit",
                      "type": "uint256"
                    },
                    {
                      "internalType": "bytes",
                      "name": "data",
                      "type": "bytes"
                    }
                  ],
                  "internalType": "struct Transaction",
                  "name": "transaction",
                  "type": "tuple"
                },
                {
                  "components": [
                    {
                      "components": [
                        {
                          "internalType": "address",
                          "name": "delegate",
                          "type": "address"
                        },
                        {
                          "internalType": "bytes32",
                          "name": "authority",
                          "type": "bytes32"
                        },
                        {
                          "components": [
                            {
                              "internalType": "address",
                              "name": "enforcer",
                              "type": "address"
                            },
                            {
                              "internalType": "bytes",
                              "name": "terms",
                              "type": "bytes"
                            }
                          ],
                          "internalType": "struct Caveat[]",
                          "name": "caveats",
                          "type": "tuple[]"
                        }
                      ],
                      "internalType": "struct Delegation",
                      "name": "delegation",
                      "type": "tuple"
                    },
                    {
                      "internalType": "bytes",
                      "name": "signature",
                      "type": "bytes"
                    }
                  ],
                  "internalType": "struct SignedDelegation[]",
                  "name": "authority",
                  "type": "tuple[]"
                }
              ],
              "internalType": "struct Invocation[]",
              "name": "batch",
              "type": "tuple[]"
            },
            {
              "components": [
                {
                  "internalType": "uint256",
                  "name": "nonce",
                  "type": "uint256"
                },
                {
                  "internalType": "uint256",
                  "name": "queue",
                  "type": "uint256"
                }
              ],
              "internalType": "struct ReplayProtection",
              "name": "replayProtection",
              "type": "tuple"
            }
          ],
          "internalType": "struct Invocations",
          "name": "_input",
          "type": "tuple"
        }
      ],
      "name": "GET_INVOCATIONS_PACKETHASH",
      "outputs": [
        {
          "internalType": "bytes32",
          "name": "",
          "type": "bytes32"
        }
      ],
      "stateMutability": "pure",
      "type": "function"
    },
    {
      "inputs": [
        {
          "components": [
            {
              "components": [
                {
                  "internalType": "address",
                  "name": "to",
                  "type": "address"
                },
                {
                  "internalType": "uint256",
                  "name": "gasLimit",
                  "type": "uint256"
                },
                {
                  "internalType": "bytes",
                  "name": "data",
                  "type": "bytes"
                }
              ],
              "internalType": "struct Transaction",
              "name": "transaction",
              "type": "tuple"
            },
            {
              "components": [
                {
                  "components": [
                    {
                      "internalType": "address",
                      "name": "delegate",
                      "type": "address"
                    },
                    {
                      "internalType": "bytes32",
                      "name": "authority",
                      "type": "bytes32"
                    },
                    {
                      "components": [
                        {
                          "internalType": "address",
                          "name": "enforcer",
                          "type": "address"
                        },
                        {
                          "internalType": "bytes",
                          "name": "terms",
                          "type": "bytes"
                        }
                      ],
                      "internalType": "struct Caveat[]",
                      "name": "caveats",
                      "type": "tuple[]"
                    }
                  ],
                  "internalType": "struct Delegation",
                  "name": "delegation",
                  "type": "tuple"
                },
                {
                  "internalType": "bytes",
                  "name": "signature",
                  "type": "bytes"
                }
              ],
              "internalType": "struct SignedDelegation[]",
              "name": "authority",
              "type": "tuple[]"
            }
          ],
          "internalType": "struct Invocation[]",
          "name": "_input",
          "type": "tuple[]"
        }
      ],
      "name": "GET_INVOCATION_ARRAY_PACKETHASH",
      "outputs": [
        {
          "internalType": "bytes32",
          "name": "",
          "type": "bytes32"
        }
      ],
      "stateMutability": "pure",
      "type": "function"
    },
    {
      "inputs": [
        {
          "components": [
            {
              "components": [
                {
                  "internalType": "address",
                  "name": "to",
                  "type": "address"
                },
                {
                  "internalType": "uint256",
                  "name": "gasLimit",
                  "type": "uint256"
                },
                {
                  "internalType": "bytes",
                  "name": "data",
                  "type": "bytes"
                }
              ],
              "internalType": "struct Transaction",
              "name": "transaction",
              "type": "tuple"
            },
            {
              "components": [
                {
                  "components": [
                    {
                      "internalType": "address",
                      "name": "delegate",
                      "type": "address"
                    },
                    {
                      "internalType": "bytes32",
                      "name": "authority",
                      "type": "bytes32"
                    },
                    {
                      "components": [
                        {
                          "internalType": "address",
                          "name": "enforcer",
                          "type": "address"
                        },
                        {
                          "internalType": "bytes",
                          "name": "terms",
                          "type": "bytes"
                        }
                      ],
                      "internalType": "struct Caveat[]",
                      "name": "caveats",
                      "type": "tuple[]"
                    }
                  ],
                  "internalType": "struct Delegation",
                  "name": "delegation",
                  "type": "tuple"
                },
                {
                  "internalType": "bytes",
                  "name": "signature",
                  "type": "bytes"
                }
              ],
              "internalType": "struct SignedDelegation[]",
              "name": "authority",
              "type": "tuple[]"
            }
          ],
          "internalType": "struct Invocation",
          "name": "_input",
          "type": "tuple"
        }
      ],
      "name": "GET_INVOCATION_PACKETHASH",
      "outputs": [
        {
          "internalType": "bytes32",
          "name": "",
          "type": "bytes32"
        }
      ],
      "stateMutability": "pure",
      "type": "function"
    },
    {
      "inputs": [
        {
          "components": [
            {
              "internalType": "uint256",
              "name": "nonce",
              "type": "uint256"
            },
            {
              "internalType": "uint256",
              "name": "queue",
              "type": "uint256"
            }
          ],
          "internalType": "struct ReplayProtection",
          "name": "_input",
          "type": "tuple"
        }
      ],
      "name": "GET_REPLAYPROTECTION_PACKETHASH",
      "outputs": [
        {
          "internalType": "bytes32",
          "name": "",
          "type": "bytes32"
        }
      ],
      "stateMutability": "pure",
      "type": "function"
    },
    {
      "inputs": [
        {
          "components": [
            {
              "components": [
                {
                  "internalType": "address",
                  "name": "delegate",
                  "type": "address"
                },
                {
                  "internalType": "bytes32",
                  "name": "authority",
                  "type": "bytes32"
                },
                {
                  "components": [
                    {
                      "internalType": "address",
                      "name": "enforcer",
                      "type": "address"
                    },
                    {
                      "internalType": "bytes",
                      "name": "terms",
                      "type": "bytes"
                    }
                  ],
                  "internalType": "struct Caveat[]",
                  "name": "caveats",
                  "type": "tuple[]"
                }
              ],
              "internalType": "struct Delegation",
              "name": "delegation",
              "type": "tuple"
            },
            {
              "internalType": "bytes",
              "name": "signature",
              "type": "bytes"
            }
          ],
          "internalType": "struct SignedDelegation[]",
          "name": "_input",
          "type": "tuple[]"
        }
      ],
      "name": "GET_SIGNEDDELEGATION_ARRAY_PACKETHASH",
      "outputs": [
        {
          "internalType": "bytes32",
          "name": "",
          "type": "bytes32"
        }
      ],
      "stateMutability": "pure",
      "type": "function"
    },
    {
      "inputs": [
        {
          "components": [
            {
              "components": [
                {
                  "internalType": "address",
                  "name": "delegate",
                  "type": "address"
                },
                {
                  "internalType": "bytes32",
                  "name": "authority",
                  "type": "bytes32"
                },
                {
                  "components": [
                    {
                      "internalType": "address",
                      "name": "enforcer",
                      "type": "address"
                    },
                    {
                      "internalType": "bytes",
                      "name": "terms",
                      "type": "bytes"
                    }
                  ],
                  "internalType": "struct Caveat[]",
                  "name": "caveats",
                  "type": "tuple[]"
                }
              ],
              "internalType": "struct Delegation",
              "name": "delegation",
              "type": "tuple"
            },
            {
              "internalType": "bytes",
              "name": "signature",
              "type": "bytes"
            }
          ],
          "internalType": "struct SignedDelegation",
          "name": "_input",
          "type": "tuple"
        }
      ],
      "name": "GET_SIGNEDDELEGATION_PACKETHASH",
      "outputs": [
        {
          "internalType": "bytes32",
          "name": "",
          "type": "bytes32"
        }
      ],
      "stateMutability": "pure",
      "type": "function"
    },
    {
      "inputs": [
        {
          "components": [
            {
              "internalType": "address",
              "name": "to",
              "type": "address"
            },
            {
              "internalType": "uint256",
              "name": "gasLimit",
              "type": "uint256"
            },
            {
              "internalType": "bytes",
              "name": "data",
              "type": "bytes"
            }
          ],
          "internalType": "struct Transaction",
          "name": "_input",
          "type": "tuple"
        }
      ],
      "name": "GET_TRANSACTION_PACKETHASH",
      "outputs": [
        {
          "internalType": "bytes32",
          "name": "",
          "type": "bytes32"
        }
      ],
      "stateMutability": "pure",
      "type": "function"
    },
    {
      "inputs": [
        {
          "internalType": "address",
          "name": "_token",
          "type": "address"
        },
        {
          "internalType": "address",
          "name": "_from",
          "type": "address"
        },
        {
          "internalType": "uint256",
          "name": "_amount",
          "type": "uint256"
        },
        {
          "internalType": "uint256",
          "name": "_deadline",
          "type": "uint256"
        },
        {
          "internalType": "uint8",
          "name": "v",
          "type": "uint8"
        },
        {
          "internalType": "bytes32",
          "name": "r",
          "type": "bytes32"
        },
        {
          "internalType": "bytes32",
          "name": "s",
          "type": "bytes32"
        }
      ],
      "name": "approveTransferProxy",
      "outputs": [],
      "stateMutability": "nonpayable",
      "type": "function"
    },
    {
      "inputs": [
        {
          "components": [
            {
              "components": [
                {
                  "internalType": "address",
                  "name": "to",
                  "type": "address"
                },
                {
                  "internalType": "uint256",
                  "name": "gasLimit",
                  "type": "uint256"
                },
                {
                  "internalType": "bytes",
                  "name": "data",
                  "type": "bytes"
                }
              ],
              "internalType": "struct Transaction",
              "name": "transaction",
              "type": "tuple"
            },
            {
              "components": [
                {
                  "components": [
                    {
                      "internalType": "address",
                      "name": "delegate",
                      "type": "address"
                    },
                    {
                      "internalType": "bytes32",
                      "name": "authority",
                      "type": "bytes32"
                    },
                    {
                      "components": [
                        {
                          "internalType": "address",
                          "name": "enforcer",
                          "type": "address"
                        },
                        {
                          "internalType": "bytes",
                          "name": "terms",
                          "type": "bytes"
                        }
                      ],
                      "internalType": "struct Caveat[]",
                      "name": "caveats",
                      "type": "tuple[]"
                    }
                  ],
                  "internalType": "struct Delegation",
                  "name": "delegation",
                  "type": "tuple"
                },
                {
                  "internalType": "bytes",
                  "name": "signature",
                  "type": "bytes"
                }
              ],
              "internalType": "struct SignedDelegation[]",
              "name": "authority",
              "type": "tuple[]"
            }
          ],
          "internalType": "struct Invocation[]",
          "name": "batch",
          "type": "tuple[]"
        }
      ],
      "name": "contractInvoke",
      "outputs": [
        {
          "internalType": "bool",
          "name": "",
          "type": "bool"
        }
      ],
      "stateMutability": "nonpayable",
      "type": "function"
    },
    {
      "inputs": [],
      "name": "domainHash",
      "outputs": [
        {
          "internalType": "bytes32",
          "name": "",
          "type": "bytes32"
        }
      ],
      "stateMutability": "view",
      "type": "function"
    },
    {
      "inputs": [
        {
          "components": [
            {
              "internalType": "address",
              "name": "delegate",
              "type": "address"
            },
            {
              "internalType": "bytes32",
              "name": "authority",
              "type": "bytes32"
            },
            {
              "components": [
                {
                  "internalType": "address",
                  "name": "enforcer",
                  "type": "address"
                },
                {
                  "internalType": "bytes",
                  "name": "terms",
                  "type": "bytes"
                }
              ],
              "internalType": "struct Caveat[]",
              "name": "caveats",
              "type": "tuple[]"
            }
          ],
          "internalType": "struct Delegation",
          "name": "delegation",
          "type": "tuple"
        }
      ],
      "name": "getDelegationTypedDataHash",
      "outputs": [
        {
          "internalType": "bytes32",
          "name": "",
          "type": "bytes32"
        }
      ],
      "stateMutability": "view",
      "type": "function"
    },
    {
      "inputs": [
        {
          "internalType": "string",
          "name": "contractName",
          "type": "string"
        },
        {
          "internalType": "string",
          "name": "version",
          "type": "string"
        },
        {
          "internalType": "uint256",
          "name": "chainId",
          "type": "uint256"
        },
        {
          "internalType": "address",
          "name": "verifyingContract",
          "type": "address"
        }
      ],
      "name": "getEIP712DomainHash",
      "outputs": [
        {
          "internalType": "bytes32",
          "name": "",
          "type": "bytes32"
        }
      ],
      "stateMutability": "pure",
      "type": "function"
    },
    {
      "inputs": [
        {
          "components": [
            {
              "internalType": "address",
              "name": "delegate",
              "type": "address"
            },
            {
              "internalType": "bytes32",
              "name": "authority",
              "type": "bytes32"
            },
            {
              "components": [
                {
                  "internalType": "address",
                  "name": "enforcer",
                  "type": "address"
                },
                {
                  "internalType": "bytes",
                  "name": "terms",
                  "type": "bytes"
                }
              ],
              "internalType": "struct Caveat[]",
              "name": "caveats",
              "type": "tuple[]"
            }
          ],
          "internalType": "struct Delegation",
          "name": "_delegation",
          "type": "tuple"
        },
        {
          "internalType": "bytes32",
          "name": "_domainHash",
          "type": "bytes32"
        }
      ],
      "name": "getExternalDelegationTypedDataHash",
      "outputs": [
        {
          "internalType": "bytes32",
          "name": "sigHash",
          "type": "bytes32"
        }
      ],
      "stateMutability": "pure",
      "type": "function"
    },
    {
      "inputs": [
        {
          "components": [
            {
              "components": [
                {
                  "components": [
                    {
                      "internalType": "address",
                      "name": "to",
                      "type": "address"
                    },
                    {
                      "internalType": "uint256",
                      "name": "gasLimit",
                      "type": "uint256"
                    },
                    {
                      "internalType": "bytes",
                      "name": "data",
                      "type": "bytes"
                    }
                  ],
                  "internalType": "struct Transaction",
                  "name": "transaction",
                  "type": "tuple"
                },
                {
                  "components": [
                    {
                      "components": [
                        {
                          "internalType": "address",
                          "name": "delegate",
                          "type": "address"
                        },
                        {
                          "internalType": "bytes32",
                          "name": "authority",
                          "type": "bytes32"
                        },
                        {
                          "components": [
                            {
                              "internalType": "address",
                              "name": "enforcer",
                              "type": "address"
                            },
                            {
                              "internalType": "bytes",
                              "name": "terms",
                              "type": "bytes"
                            }
                          ],
                          "internalType": "struct Caveat[]",
                          "name": "caveats",
                          "type": "tuple[]"
                        }
                      ],
                      "internalType": "struct Delegation",
                      "name": "delegation",
                      "type": "tuple"
                    },
                    {
                      "internalType": "bytes",
                      "name": "signature",
                      "type": "bytes"
                    }
                  ],
                  "internalType": "struct SignedDelegation[]",
                  "name": "authority",
                  "type": "tuple[]"
                }
              ],
              "internalType": "struct Invocation[]",
              "name": "batch",
              "type": "tuple[]"
            },
            {
              "components": [
                {
                  "internalType": "uint256",
                  "name": "nonce",
                  "type": "uint256"
                },
                {
                  "internalType": "uint256",
                  "name": "queue",
                  "type": "uint256"
                }
              ],
              "internalType": "struct ReplayProtection",
              "name": "replayProtection",
              "type": "tuple"
            }
          ],
          "internalType": "struct Invocations",
          "name": "invocations",
          "type": "tuple"
        }
      ],
      "name": "getInvocationsTypedDataHash",
      "outputs": [
        {
          "internalType": "bytes32",
          "name": "",
          "type": "bytes32"
        }
      ],
      "stateMutability": "view",
      "type": "function"
    },
    {
      "inputs": [
        {
          "internalType": "address",
          "name": "intendedSender",
          "type": "address"
        },
        {
          "internalType": "uint256",
          "name": "queue",
          "type": "uint256"
        }
      ],
      "name": "getNonce",
      "outputs": [
        {
          "internalType": "uint256",
          "name": "",
          "type": "uint256"
        }
      ],
      "stateMutability": "view",
      "type": "function"
    },
    {
      "inputs": [
        {
          "components": [
            {
              "components": [
                {
                  "components": [
                    {
                      "components": [
                        {
                          "internalType": "address",
                          "name": "to",
                          "type": "address"
                        },
                        {
                          "internalType": "uint256",
                          "name": "gasLimit",
                          "type": "uint256"
                        },
                        {
                          "internalType": "bytes",
                          "name": "data",
                          "type": "bytes"
                        }
                      ],
                      "internalType": "struct Transaction",
                      "name": "transaction",
                      "type": "tuple"
                    },
                    {
                      "components": [
                        {
                          "components": [
                            {
                              "internalType": "address",
                              "name": "delegate",
                              "type": "address"
                            },
                            {
                              "internalType": "bytes32",
                              "name": "authority",
                              "type": "bytes32"
                            },
                            {
                              "components": [
                                {
                                  "internalType": "address",
                                  "name": "enforcer",
                                  "type": "address"
                                },
                                {
                                  "internalType": "bytes",
                                  "name": "terms",
                                  "type": "bytes"
                                }
                              ],
                              "internalType": "struct Caveat[]",
                              "name": "caveats",
                              "type": "tuple[]"
                            }
                          ],
                          "internalType": "struct Delegation",
                          "name": "delegation",
                          "type": "tuple"
                        },
                        {
                          "internalType": "bytes",
                          "name": "signature",
                          "type": "bytes"
                        }
                      ],
                      "internalType": "struct SignedDelegation[]",
                      "name": "authority",
                      "type": "tuple[]"
                    }
                  ],
                  "internalType": "struct Invocation[]",
                  "name": "batch",
                  "type": "tuple[]"
                },
                {
                  "components": [
                    {
                      "internalType": "uint256",
                      "name": "nonce",
                      "type": "uint256"
                    },
                    {
                      "internalType": "uint256",
                      "name": "queue",
                      "type": "uint256"
                    }
                  ],
                  "internalType": "struct ReplayProtection",
                  "name": "replayProtection",
                  "type": "tuple"
                }
              ],
              "internalType": "struct Invocations",
              "name": "invocations",
              "type": "tuple"
            },
            {
              "internalType": "bytes",
              "name": "signature",
              "type": "bytes"
            }
          ],
          "internalType": "struct SignedInvocation[]",
          "name": "signedInvocations",
          "type": "tuple[]"
        }
      ],
      "name": "invoke",
      "outputs": [
        {
          "internalType": "bool",
          "name": "success",
          "type": "bool"
        }
      ],
      "stateMutability": "nonpayable",
      "type": "function"
    },
    {
      "inputs": [
        {
          "components": [
            {
              "components": [
                {
                  "internalType": "address",
                  "name": "delegate",
                  "type": "address"
                },
                {
                  "internalType": "bytes32",
                  "name": "authority",
                  "type": "bytes32"
                },
                {
                  "components": [
                    {
                      "internalType": "address",
                      "name": "enforcer",
                      "type": "address"
                    },
                    {
                      "internalType": "bytes",
                      "name": "terms",
                      "type": "bytes"
                    }
                  ],
                  "internalType": "struct Caveat[]",
                  "name": "caveats",
                  "type": "tuple[]"
                }
              ],
              "internalType": "struct Delegation",
              "name": "delegation",
              "type": "tuple"
            },
            {
              "internalType": "bytes",
              "name": "signature",
              "type": "bytes"
            }
          ],
          "internalType": "struct SignedDelegation",
          "name": "_signedDelegation",
          "type": "tuple"
        }
      ],
      "name": "isRevoked",
      "outputs": [
        {
          "internalType": "bool",
          "name": "revoked",
          "type": "bool"
        }
      ],
      "stateMutability": "view",
      "type": "function"
    },
    {
      "inputs": [],
      "name": "owner",
      "outputs": [
        {
          "internalType": "address",
          "name": "",
          "type": "address"
        }
      ],
      "stateMutability": "view",
      "type": "function"
    },
    {
      "inputs": [],
      "name": "renounceOwnership",
      "outputs": [],
      "stateMutability": "nonpayable",
      "type": "function"
    },
    {
      "inputs": [
        {
          "components": [
            {
              "components": [
                {
                  "internalType": "address",
                  "name": "delegate",
                  "type": "address"
                },
                {
                  "internalType": "bytes32",
                  "name": "authority",
                  "type": "bytes32"
                },
                {
                  "components": [
                    {
                      "internalType": "address",
                      "name": "enforcer",
                      "type": "address"
                    },
                    {
                      "internalType": "bytes",
                      "name": "terms",
                      "type": "bytes"
                    }
                  ],
                  "internalType": "struct Caveat[]",
                  "name": "caveats",
                  "type": "tuple[]"
                }
              ],
              "internalType": "struct Delegation",
              "name": "delegation",
              "type": "tuple"
            },
            {
              "internalType": "bytes",
              "name": "signature",
              "type": "bytes"
            }
          ],
          "internalType": "struct SignedDelegation",
          "name": "_signedDelegation",
          "type": "tuple"
        },
        {
          "internalType": "bytes32",
          "name": "_domainHash",
          "type": "bytes32"
        }
      ],
      "name": "revoke",
      "outputs": [],
      "stateMutability": "nonpayable",
      "type": "function"
    },
    {
      "inputs": [
        {
          "internalType": "address",
          "name": "newOwner",
          "type": "address"
        }
      ],
      "name": "transferOwnership",
      "outputs": [],
      "stateMutability": "nonpayable",
      "type": "function"
    },
    {
      "inputs": [
        {
          "internalType": "address",
          "name": "_token",
          "type": "address"
        },
        {
          "internalType": "address",
          "name": "_to",
          "type": "address"
        },
        {
          "internalType": "uint256",
          "name": "_amount",
          "type": "uint256"
        }
      ],
      "name": "transferProxy",
      "outputs": [
        {
          "internalType": "bool",
          "name": "",
          "type": "bool"
        }
      ],
      "stateMutability": "nonpayable",
      "type": "function"
    },
    {
      "inputs": [
        {
          "components": [
            {
              "components": [
                {
                  "internalType": "address",
                  "name": "delegate",
                  "type": "address"
                },
                {
                  "internalType": "bytes32",
                  "name": "authority",
                  "type": "bytes32"
                },
                {
                  "components": [
                    {
                      "internalType": "address",
                      "name": "enforcer",
                      "type": "address"
                    },
                    {
                      "internalType": "bytes",
                      "name": "terms",
                      "type": "bytes"
                    }
                  ],
                  "internalType": "struct Caveat[]",
                  "name": "caveats",
                  "type": "tuple[]"
                }
              ],
              "internalType": "struct Delegation",
              "name": "delegation",
              "type": "tuple"
            },
            {
              "internalType": "bytes",
              "name": "signature",
              "type": "bytes"
            }
          ],
          "internalType": "struct SignedDelegation",
          "name": "signedDelegation",
          "type": "tuple"
        }
      ],
      "name": "verifyDelegationSignature",
      "outputs": [
        {
          "internalType": "address",
          "name": "",
          "type": "address"
        }
      ],
      "stateMutability": "view",
      "type": "function"
    },
    {
      "inputs": [
        {
          "components": [
            {
              "components": [
                {
                  "internalType": "address",
                  "name": "delegate",
                  "type": "address"
                },
                {
                  "internalType": "bytes32",
                  "name": "authority",
                  "type": "bytes32"
                },
                {
                  "components": [
                    {
                      "internalType": "address",
                      "name": "enforcer",
                      "type": "address"
                    },
                    {
                      "internalType": "bytes",
                      "name": "terms",
                      "type": "bytes"
                    }
                  ],
                  "internalType": "struct Caveat[]",
                  "name": "caveats",
                  "type": "tuple[]"
                }
              ],
              "internalType": "struct Delegation",
              "name": "delegation",
              "type": "tuple"
            },
            {
              "internalType": "bytes",
              "name": "signature",
              "type": "bytes"
            }
          ],
          "internalType": "struct SignedDelegation",
          "name": "_signedDelegation",
          "type": "tuple"
        },
        {
          "internalType": "bytes32",
          "name": "_domainHash",
          "type": "bytes32"
        }
      ],
      "name": "verifyExternalDelegationSignature",
      "outputs": [
        {
          "internalType": "address",
          "name": "signer",
          "type": "address"
        }
      ],
      "stateMutability": "view",
      "type": "function"
    },
    {
      "inputs": [
        {
          "components": [
            {
              "components": [
                {
                  "components": [
                    {
                      "components": [
                        {
                          "internalType": "address",
                          "name": "to",
                          "type": "address"
                        },
                        {
                          "internalType": "uint256",
                          "name": "gasLimit",
                          "type": "uint256"
                        },
                        {
                          "internalType": "bytes",
                          "name": "data",
                          "type": "bytes"
                        }
                      ],
                      "internalType": "struct Transaction",
                      "name": "transaction",
                      "type": "tuple"
                    },
                    {
                      "components": [
                        {
                          "components": [
                            {
                              "internalType": "address",
                              "name": "delegate",
                              "type": "address"
                            },
                            {
                              "internalType": "bytes32",
                              "name": "authority",
                              "type": "bytes32"
                            },
                            {
                              "components": [
                                {
                                  "internalType": "address",
                                  "name": "enforcer",
                                  "type": "address"
                                },
                                {
                                  "internalType": "bytes",
                                  "name": "terms",
                                  "type": "bytes"
                                }
                              ],
                              "internalType": "struct Caveat[]",
                              "name": "caveats",
                              "type": "tuple[]"
                            }
                          ],
                          "internalType": "struct Delegation",
                          "name": "delegation",
                          "type": "tuple"
                        },
                        {
                          "internalType": "bytes",
                          "name": "signature",
                          "type": "bytes"
                        }
                      ],
                      "internalType": "struct SignedDelegation[]",
                      "name": "authority",
                      "type": "tuple[]"
                    }
                  ],
                  "internalType": "struct Invocation[]",
                  "name": "batch",
                  "type": "tuple[]"
                },
                {
                  "components": [
                    {
                      "internalType": "uint256",
                      "name": "nonce",
                      "type": "uint256"
                    },
                    {
                      "internalType": "uint256",
                      "name": "queue",
                      "type": "uint256"
                    }
                  ],
                  "internalType": "struct ReplayProtection",
                  "name": "replayProtection",
                  "type": "tuple"
                }
              ],
              "internalType": "struct Invocations",
              "name": "invocations",
              "type": "tuple"
            },
            {
              "internalType": "bytes",
              "name": "signature",
              "type": "bytes"
            }
          ],
          "internalType": "struct SignedInvocation",
          "name": "signedInvocation",
          "type": "tuple"
        }
      ],
      "name": "verifyInvocationSignature",
      "outputs": [
        {
          "internalType": "address",
          "name": "",
          "type": "address"
        }
      ],
      "stateMutability": "view",
      "type": "function"
    }
  ],
  "transactionHash": "0xce745b712f1e0ee7a64b844fc273fd04c4a540ce5d4e8cd8a0772ba5234a51bc",
  "args": [],
  "numDeployments": 2,
  "solcInputHash": "003ced62e3a997804e9af0639ca129b4",
  "bytecode": "0x60a06040523480156200001157600080fd5b506040518060400160405280600c81526020016b22a921991826b0b730b3b2b960a11b815250604051806040016040528060018152602001603160f81b81525062000065828246306200008560201b60201c565b608052506200007f90506200007962000101565b6200015f565b620001b1565b8351602094850120835193850193909320604080517f8b73c3c69bb8fe3d512ecc4cf759cc79239f7b179b0ffacaa9a75d522b39400f8188015280820195909552606085019190915260808401929092526001600160a01b031660a0808401919091528151808403909101815260c09092019052805191012090565b60003033036200015957600080368080601f0160208091040260200160405190810160405280939291908181526020018383808284376000920191909152505050503601516001600160a01b031691506200015c9050565b50335b90565b600180546001600160a01b038381166001600160a01b0319831681179093556040519116919082907f8be0079c531659141344cd1fd0a4f28419497f9722a3daafe3b4186f6b6457e090600090a35050565b608051612450620001db6000396000818161045e015281816109690152610bb301526124506000f3fe608060405234801561001057600080fd5b50600436106101c45760003560e01c806389535803116100f9578063c57cbe4b11610097578063dfe86ac511610071578063dfe86ac514610459578063e33150db14610480578063f2fde38b14610493578063fb8ad30d146104a657600080fd5b8063c57cbe4b146103a9578063caced6c5146103bc578063d327c1eb146103cf57600080fd5b806397182ed6116100d357806397182ed61461035d5780639d82aa8f14610370578063a2e01f7514610383578063a58ab45c1461039657600080fd5b806389535803146102ed5780638a04499e146103215780638da5cb5b1461034c57600080fd5b806360b6d76811610166578063715018a611610140578063715018a6146102aa5780637234eefe146102b4578063736f7ce7146102c75780637b577b58146102da57600080fd5b806360b6d768146102715780636c2b1253146102845780636f9658031461029757600080fd5b80633a481821116101a25780633a481821146102255780634733dc8f146102385780635c6d9f0c1461024b5780635cf1b24a1461025e57600080fd5b806308aaf6b0146101c95780632f52a2fd146101ef5780632fad7efc14610202575b600080fd5b6101dc6101d7366004611803565b6104b9565b6040519081526020015b60405180910390f35b6101dc6101fd366004611946565b610539565b6102156102103660046119c5565b6105a4565b60405190151581526020016101e6565b6101dc610233366004611c1e565b61077f565b610215610246366004611c52565b6107f6565b6102156102593660046119c5565b6108f1565b6101dc61026c366004611c8e565b610907565b6101dc61027f366004611d4b565b610964565b6101dc610292366004611d7f565b6109b4565b6101dc6102a5366004611db3565b610a11565b6102b2610a62565b005b6101dc6102c2366004611d4b565b610a76565b6101dc6102d5366004611dcf565b610ab4565b6101dc6102e8366004611e03565b610b1c565b6101dc6102fb366004611e37565b6001600160a01b0391909116600090815260208181526040808320938352929052205490565b61033461032f366004611d7f565b610b84565b6040516001600160a01b0390911681526020016101e6565b6001546001600160a01b0316610334565b6101dc61036b366004611946565b610bae565b6102b261037e366004611e61565b610bdb565b6101dc610391366004611e9c565b610c76565b6101dc6103a4366004611ed0565b610ce2565b6102156103b7366004611d7f565b610d2a565b6103346103ca366004611f53565b610d4f565b6101dc6103dd366004611f87565b8351602094850120835193850193909320604080517f8b73c3c69bb8fe3d512ecc4cf759cc79239f7b179b0ffacaa9a75d522b39400f8188015280820195909552606085019190915260808401929092526001600160a01b031660a0808401919091528151808403909101815260c09092019052805191012090565b6101dc7f000000000000000000000000000000000000000000000000000000000000000081565b6102b261048e366004612004565b610d71565b6102b26104a1366004612077565b610e4f565b6103346104b4366004612092565b610ec8565b6000807f80ad7e1b04ee6d994a125f4714ca0720908bd80ed16063ec8aee4b88e9253e2d836000015184602001518051906020012060405160200161051a939291909283526001600160a01b03919091166020830152604082015260600190565b60408051601f1981840301815291905280516020909101209392505050565b6000807f409f5114779a253e700d775d7845e6efc1e83685ac59868d2df3d4de51c7d621836000015184602001516105748660400151610b1c565b6040805160208101959095526001600160a01b03909316928401929092526060830152608082015260a00161051a565b6000805b8281101561077857368484838181106105c3576105c36120c7565b90506020028101906105d591906120dd565b905060005b6105e482806120fd565b6105ee9080612113565b90508110156106e957600061060383806120fd565b61060d9080612113565b8381811061061d5761061d6120c7565b905060200281019061062f91906120dd565b6106389061215c565b905060005b8160200151518110156106d45761067082602001518281518110610663576106636120c7565b6020026020010151610d2a565b156106c25760405162461bcd60e51b815260206004820152601f60248201527f45524332304d616e616765723a7265766f6b65642d64656c65676174696f6e0060448201526064015b60405180910390fd5b806106cc8161217e565b91505061063d565b505080806106e19061217e565b9150506105da565b5060006106f86103ca83612197565b905061074481878786818110610710576107106120c7565b905060200281019061072291906120dd565b61072c90806120fd565b60200180360381019061073f9190611db3565b610ee8565b61076161075183806120fd565b61075b9080612113565b83610fa2565b9350505080806107709061217e565b9150506105a8565b5092915050565b6000606060005b83518110156107e757816107b28583815181106107a5576107a56120c7565b6020026020010151610907565b6040516020016107c39291906121d3565b604051602081830303815290604052915080806107df9061217e565b915050610786565b50805160209091012092915050565b60003330146108595760405162461bcd60e51b815260206004820152602960248201527f45524332304d616e616765723a7472616e7366657250726f78792d6e6f742d616044820152681d5d1a1bdc9a5e995960ba1b60648201526084016106b9565b836001600160a01b03166323b872dd610870611355565b6040516001600160e01b031960e084901b1681526001600160a01b0391821660048201529086166024820152604481018590526064016020604051808303816000875af11580156108c5573d6000803e3d6000fd5b505050506040513d601f19601f820116820180604052508101906108e991906121f5565b949350505050565b60006108fe838333610fa2565b90505b92915050565b6000807fd97dd99b404d177890f06a8f0fc8e5ed0333fb2ebb6684360709066e8984f5946109388460000151610c76565b6109458560200151610ab4565b604080516020810194909452830191909152606082015260800161051a565b6000807f000000000000000000000000000000000000000000000000000000000000000061099184610a76565b60405161190160f01b60208201526022810192909252604282015260620161051a565b6000807f3c36a06e1d288b0f94f565588317a46ad11bc3c96992109f9a2365a2737259a76109e58460000151610539565b60208086015180519082012060405161051a949392019283526020830191909152604082015260600190565b6000807fe8d3d963b33868fb116316bc3fd55e8f49123f30e4418f71e140d54b7cd3b2b98360000151846020015160405160200161051a939291909283526020830191909152604082015260600190565b610a6a6113b1565b610a74600061142a565b565b6000807f08c69a206c06f5334b35ceb1186181a713b21aff02cf66285f375084fbef2eb8610aa7846000015161077f565b6109458560200151610a11565b6000606060005b83518110156107e75781610ae7858381518110610ada57610ada6120c7565b60200260200101516109b4565b604051602001610af89291906121d3565b60405160208183030381529060405291508080610b149061217e565b915050610abb565b6000606060005b83518110156107e75781610b4f858381518110610b4257610b426120c7565b60200260200101516104b9565b604051602001610b609291906121d3565b60405160208183030381529060405291508080610b7c9061217e565b915050610b23565b805160009081610b9382610bae565b90506000610ba582866020015161147c565b95945050505050565b6000807f000000000000000000000000000000000000000000000000000000000000000061099184610539565b6000610bef610be98461221e565b83610ec8565b9050336001600160a01b03821614610c495760405162461bcd60e51b815260206004820181905260248201527f45524332304d616e616765723a756e617574686f72697a65642d7265766f6b6560448201526064016106b9565b6000610c576102928561221e565b6000908152600260205260409020805460ff1916600117905550505050565b6000807fb16dfdb3b8fa033fe30ac976cd4a50ad256b6811c80d90fcd0b323eec190047d8360000151846020015185604001518051906020012060405160200161051a94939291909384526001600160a01b039290921660208401526040830152606082015260800190565b600081610cee84610539565b60405161190160f01b60208201526022810192909252604282015260620160405160208183030381529060405280519060200120905092915050565b600080610d36836109b4565b60009081526002602052604090205460ff169392505050565b600080610d5f8360000151610964565b905060006108e982856020015161147c565b333014610dc05760405162461bcd60e51b815260206004820152601b60248201527f45524332304d616e616765723a696e76616c69642d73656e646572000000000060448201526064016106b9565b60405163d505accf60e01b81526001600160a01b038781166004830152306024830152604482018790526064820186905260ff8516608483015260a4820184905260c4820183905288169063d505accf9060e401600060405180830381600087803b158015610e2e57600080fd5b505af1158015610e42573d6000803e3d6000fd5b5050505050505050505050565b610e576113b1565b6001600160a01b038116610ebc5760405162461bcd60e51b815260206004820152602660248201527f4f776e61626c653a206e6577206f776e657220697320746865207a65726f206160448201526564647265737360d01b60648201526084016106b9565b610ec58161142a565b50565b815160009081610ed88285610ce2565b9050610ba581866020015161147c565b60208082015182516001600160a01b038516600090815280845260408082208483529094529290922054909190610f2090600161222a565b8114610f7a5760405162461bcd60e51b815260206004820152602360248201527f44656c6567617461626c65436f72653a6e6f6e6365322d6f75742d6f662d6f726044820152623232b960e91b60648201526084016106b9565b6001600160a01b03909316600090815260208181526040808320938352929052209190915550565b6000805b8381101561134d576000858583818110610fc257610fc26120c7565b9050602002810190610fd491906120dd565b610fdd9061215c565b9050600080826020015151600003610ff55750849050805b6000805b8460200151518110156112905760008560200151828151811061101e5761101e6120c7565b60200260200101519050600061103382610b84565b905082600003611044578095508594505b846001600160a01b0316816001600160a01b0316146110b75760405162461bcd60e51b815260206004820152602960248201527f44656c6567617461626c65436f72653a696e76616c69642d64656c656761746960448201526837b716b9b4b3b732b960b91b60648201526084016106b9565b8151602081015185146111265760405162461bcd60e51b815260206004820152603160248201527f44656c6567617461626c65436f72653a696e76616c69642d617574686f726974604482015270792d64656c65676174696f6e2d6c696e6b60781b60648201526084016106b9565b6000611131846109b4565b905060005b8260400151518161ffff16101561127357600083604001518261ffff1681518110611163576111636120c7565b60200260200101516000015190506000816001600160a01b0316635068de4c86604001518561ffff168151811061119c5761119c6120c7565b6020026020010151602001518e60000151876040518463ffffffff1660e01b81526004016111cc9392919061226e565b6020604051808303816000875af11580156111eb573d6000803e3d6000fd5b505050506040513d601f19601f8201168201806040525081019061120f91906121f5565b90508061125e5760405162461bcd60e51b815260206004820152601f60248201527f44656c6567617461626c65436f72653a6361766561742d72656a65637465640060448201526064016106b9565b5050808061126b906122ca565b915050611136565b5090519550935082915061128890508161217e565b915050610ff9565b50835180516001600160a01b031630146112fe5760405162461bcd60e51b815260206004820152602960248201527f44656c6567617461626c65436f72653a696e76616c69642d696e766f636174696044820152681bdb8b5d185c99d95d60ba1b60648201526084016106b9565b61131681600001518260400151836020015187611553565b9650866113355760405162461bcd60e51b81526004016106b9906122eb565b505050505080806113459061217e565b915050610fa6565b509392505050565b60003033036113ab57600080368080601f0160208091040260200160405190810160405280939291908181526020018383808284376000920191909152505050503601516001600160a01b031691506113ae9050565b50335b90565b6113b9611355565b6001600160a01b03166113d46001546001600160a01b031690565b6001600160a01b031614610a745760405162461bcd60e51b815260206004820181905260248201527f4f776e61626c653a2063616c6c6572206973206e6f7420746865206f776e657260448201526064016106b9565b600180546001600160a01b038381166001600160a01b0319831681179093556040519116919082907f8be0079c531659141344cd1fd0a4f28419497f9722a3daafe3b4186f6b6457e090600090a35050565b60008060008084516041146114975760009350505050610901565b50505060208201516040830151606084015160001a601b8110156114c3576114c0601b8261232c565b90505b8060ff16601b141580156114db57508060ff16601c14155b156114ec5760009350505050610901565b60408051600081526020810180835288905260ff831691810191909152606081018490526080810183905260019060a0016020604051602081039080840390855afa15801561153f573d6000803e3d6000fd5b505050602060405103519350505050610901565b6000808483604051602001611569929190612351565b60405160208183030381529060405290506060866001600160a01b031685836040516115959190612388565b60006040518083038160008787f1925050503d80600081146115d3576040519150601f19603f3d011682016040523d82523d6000602084013e6115d8565b606091505b50909350905082611629578051156116115760006115f582611633565b90508060405162461bcd60e51b81526004016106b9919061239a565b60405162461bcd60e51b81526004016106b9906122eb565b5050949350505050565b80516060906044811015611657575050604080516020810190915260008152919050565b60048301805160031983018252909361167990838101602001906024016123ad565b93525090919050565b634e487b7160e01b600052604160045260246000fd5b604080519081016001600160401b03811182821017156116ba576116ba611682565b60405290565b604051606081016001600160401b03811182821017156116ba576116ba611682565b604051601f8201601f191681016001600160401b038111828210171561170a5761170a611682565b604052919050565b80356001600160a01b038116811461172957600080fd5b919050565b60006001600160401b0382111561174757611747611682565b50601f01601f191660200190565b600082601f83011261176657600080fd5b81356117796117748261172e565b6116e2565b81815284602083860101111561178e57600080fd5b816020850160208301376000918101602001919091529392505050565b6000604082840312156117bd57600080fd5b6117c5611698565b90506117d082611712565b815260208201356001600160401b038111156117eb57600080fd5b6117f784828501611755565b60208301525092915050565b60006020828403121561181557600080fd5b81356001600160401b0381111561182b57600080fd5b6108e9848285016117ab565b60006001600160401b0382111561185057611850611682565b5060051b60200190565b600082601f83011261186b57600080fd5b8135602061187b61177483611837565b82815260059290921b8401810191818101908684111561189a57600080fd5b8286015b848110156118d95780356001600160401b038111156118bd5760008081fd5b6118cb8986838b01016117ab565b84525091830191830161189e565b509695505050505050565b6000606082840312156118f657600080fd5b6118fe6116c0565b905061190982611712565b81526020820135602082015260408201356001600160401b0381111561192e57600080fd5b61193a8482850161185a565b60408301525092915050565b60006020828403121561195857600080fd5b81356001600160401b0381111561196e57600080fd5b6108e9848285016118e4565b60008083601f84011261198c57600080fd5b5081356001600160401b038111156119a357600080fd5b6020830191508360208260051b85010111156119be57600080fd5b9250929050565b600080602083850312156119d857600080fd5b82356001600160401b038111156119ee57600080fd5b6119fa8582860161197a565b90969095509350505050565b600060608284031215611a1857600080fd5b611a206116c0565b9050611a2b82611712565b81526020820135602082015260408201356001600160401b03811115611a5057600080fd5b61193a84828501611755565b600060408284031215611a6e57600080fd5b611a76611698565b905081356001600160401b0380821115611a8f57600080fd5b611a9b858386016118e4565b83526020840135915080821115611ab157600080fd5b506117f784828501611755565b600082601f830112611acf57600080fd5b81356020611adf61177483611837565b82815260059290921b84018101918181019086841115611afe57600080fd5b8286015b848110156118d95780356001600160401b03811115611b215760008081fd5b611b2f8986838b0101611a5c565b845250918301918301611b02565b600060408284031215611b4f57600080fd5b611b57611698565b905081356001600160401b0380821115611b7057600080fd5b611b7c85838601611a06565b83526020840135915080821115611b9257600080fd5b506117f784828501611abe565b600082601f830112611bb057600080fd5b81356020611bc061177483611837565b82815260059290921b84018101918181019086841115611bdf57600080fd5b8286015b848110156118d95780356001600160401b03811115611c025760008081fd5b611c108986838b0101611b3d565b845250918301918301611be3565b600060208284031215611c3057600080fd5b81356001600160401b03811115611c4657600080fd5b6108e984828501611b9f565b600080600060608486031215611c6757600080fd5b611c7084611712565b9250611c7e60208501611712565b9150604084013590509250925092565b600060208284031215611ca057600080fd5b81356001600160401b03811115611cb657600080fd5b6108e984828501611b3d565b600060408284031215611cd457600080fd5b611cdc611698565b9050813581526020820135602082015292915050565b600060608284031215611d0457600080fd5b611d0c611698565b905081356001600160401b03811115611d2457600080fd5b611d3084828501611b9f565b825250611d408360208401611cc2565b602082015292915050565b600060208284031215611d5d57600080fd5b81356001600160401b03811115611d7357600080fd5b6108e984828501611cf2565b600060208284031215611d9157600080fd5b81356001600160401b03811115611da757600080fd5b6108e984828501611a5c565b600060408284031215611dc557600080fd5b6108fe8383611cc2565b600060208284031215611de157600080fd5b81356001600160401b03811115611df757600080fd5b6108e984828501611abe565b600060208284031215611e1557600080fd5b81356001600160401b03811115611e2b57600080fd5b6108e98482850161185a565b60008060408385031215611e4a57600080fd5b611e5383611712565b946020939093013593505050565b60008060408385031215611e7457600080fd5b82356001600160401b03811115611e8a57600080fd5b830160408186031215611e5357600080fd5b600060208284031215611eae57600080fd5b81356001600160401b03811115611ec457600080fd5b6108e984828501611a06565b60008060408385031215611ee357600080fd5b82356001600160401b03811115611ef957600080fd5b611f05858286016118e4565b95602094909401359450505050565b600060408284031215611f2657600080fd5b611f2e611698565b905081356001600160401b0380821115611f4757600080fd5b611a9b85838601611cf2565b600060208284031215611f6557600080fd5b81356001600160401b03811115611f7b57600080fd5b6108e984828501611f14565b60008060008060808587031215611f9d57600080fd5b84356001600160401b0380821115611fb457600080fd5b611fc088838901611755565b95506020870135915080821115611fd657600080fd5b50611fe387828801611755565b93505060408501359150611ff960608601611712565b905092959194509250565b600080600080600080600060e0888a03121561201f57600080fd5b61202888611712565b965061203660208901611712565b95506040880135945060608801359350608088013560ff8116811461205a57600080fd5b9699959850939692959460a0840135945060c09093013592915050565b60006020828403121561208957600080fd5b6108fe82611712565b600080604083850312156120a557600080fd5b82356001600160401b038111156120bb57600080fd5b611f0585828601611a5c565b634e487b7160e01b600052603260045260246000fd5b60008235603e198336030181126120f357600080fd5b9190910192915050565b60008235605e198336030181126120f357600080fd5b6000808335601e1984360301811261212a57600080fd5b8301803591506001600160401b0382111561214457600080fd5b6020019150600581901b36038213156119be57600080fd5b60006109013683611b3d565b634e487b7160e01b600052601160045260246000fd5b60006001820161219057612190612168565b5060010190565b60006109013683611f14565b60005b838110156121be5781810151838201526020016121a6565b838111156121cd576000848401525b50505050565b600083516121e58184602088016121a3565b9190910191825250602001919050565b60006020828403121561220757600080fd5b8151801515811461221757600080fd5b9392505050565b60006109013683611a5c565b6000821982111561223d5761223d612168565b500190565b6000815180845261225a8160208601602086016121a3565b601f01601f19169290920160200192915050565b6060815260006122816060830186612242565b828103602084015260018060a01b038551168152602085015160208201526040850151606060408301526122b86060830182612242565b92505050826040830152949350505050565b600061ffff8083168181036122e1576122e1612168565b6001019392505050565b60208082526021908201527f44656c6567617461626c65436f72653a3a657865637574696f6e2d6661696c656040820152601960fa1b606082015260800190565b600060ff821660ff84168060ff0382111561234957612349612168565b019392505050565b600083516123638184602088016121a3565b60609390931b6bffffffffffffffffffffffff19169190920190815260140192915050565b600082516120f38184602087016121a3565b6020815260006108fe6020830184612242565b6000602082840312156123bf57600080fd5b81516001600160401b038111156123d557600080fd5b8201601f810184136123e657600080fd5b80516123f46117748261172e565b81815285602083850101111561240957600080fd5b610ba58260208301602086016121a356fea26469706673582212208a46ad2e2189e473d74e9c1e0b32574da735160b6ed9e1760ac9c548389b0d1b64736f6c634300080f0033",
  "devdoc": {
    "author": "McOso",
    "kind": "dev",
    "methods": {
      "contractInvoke(((address,uint256,bytes),((address,bytes32,(address,bytes)[]),bytes)[])[])": {
        "params": {
          "batch": "Invocation[] - The batch of invocations to process."
        },
        "returns": {
          "_0": "success bool - Whether the batch of invocations was successfully processed."
        }
      },
      "getDelegationTypedDataHash((address,bytes32,(address,bytes)[]))": {
        "params": {
          "delegation": "Delegation - The delegation to get the type of"
        },
        "returns": {
          "_0": "bytes32 - The type of the delegation"
        }
      },
      "getInvocationsTypedDataHash((((address,uint256,bytes),((address,bytes32,(address,bytes)[]),bytes)[])[],(uint256,uint256)))": {
        "params": {
          "invocations": "Invocations"
        },
        "returns": {
          "_0": "bytes32 - The type of the Invocations"
        }
      },
      "invoke(((((address,uint256,bytes),((address,bytes32,(address,bytes)[]),bytes)[])[],(uint256,uint256)),bytes)[])": {
        "params": {
          "signedInvocations": "SignedInvocation[] - The batch of signed invocations to process."
        },
        "returns": {
          "success": "bool - Whether the batch of invocations was successfully processed."
        }
      },
      "owner()": {
        "details": "Returns the address of the current owner."
      },
      "renounceOwnership()": {
        "details": "Leaves the contract without owner. It will not be possible to call `onlyOwner` functions anymore. Can only be called by the current owner. NOTE: Renouncing ownership will leave the contract without an owner, thereby removing any functionality that is only available to the owner."
      },
      "transferOwnership(address)": {
        "details": "Transfers ownership of the contract to a new account (`newOwner`). Can only be called by the current owner."
      },
      "verifyInvocationSignature(((((address,uint256,bytes),((address,bytes32,(address,bytes)[]),bytes)[])[],(uint256,uint256)),bytes))": {
        "params": {
          "signedInvocation": "- The signed invocation to verify"
        },
        "returns": {
          "_0": "address - The address of the account authorizing this invocation to act on its behalf."
        }
      }
    },
    "title": "ERC20Manager",
    "version": 1
  },
  "userdoc": {
    "kind": "user",
    "methods": {
      "contractInvoke(((address,uint256,bytes),((address,bytes32,(address,bytes)[]),bytes)[])[])": {
        "notice": "Allows a smart contract to submit a batch of invocations for processing, allowing itself to be the delegate."
      },
      "domainHash()": {
        "notice": "The hash of the domain separator used in the EIP712 domain hash."
      },
      "getDelegationTypedDataHash((address,bytes32,(address,bytes)[]))": {
        "notice": "Returns the typehash for this contract's delegation signatures."
      },
      "getInvocationsTypedDataHash((((address,uint256,bytes),((address,bytes32,(address,bytes)[]),bytes)[])[],(uint256,uint256)))": {
        "notice": "Returns the typehash for this contract's invocation signatures."
      },
      "invoke(((((address,uint256,bytes),((address,bytes32,(address,bytes)[]),bytes)[])[],(uint256,uint256)),bytes)[])": {
        "notice": "Allows anyone to submit a batch of signed invocations for processing."
      },
      "verifyInvocationSignature(((((address,uint256,bytes),((address,bytes32,(address,bytes)[]),bytes)[])[],(uint256,uint256)),bytes))": {
        "notice": "Verifies that the given invocation is valid."
      }
    },
    "notice": "Manages the erc20 delegation",
    "version": 1
  },
  "storageLayout": {
    "storage": [
      {
        "astId": 38,
        "contract": "contracts/ERC20Manager.sol:ERC20Manager",
        "label": "multiNonce",
        "offset": 0,
        "slot": "0",
        "type": "t_mapping(t_address,t_mapping(t_uint256,t_uint256))"
      },
      {
        "astId": 1043,
        "contract": "contracts/ERC20Manager.sol:ERC20Manager",
        "label": "_owner",
        "offset": 0,
        "slot": "1",
        "type": "t_address"
      },
      {
        "astId": 1570,
        "contract": "contracts/ERC20Manager.sol:ERC20Manager",
        "label": "revokedMap",
        "offset": 0,
        "slot": "2",
        "type": "t_mapping(t_bytes32,t_bool)"
      }
    ],
    "types": {
      "t_address": {
        "encoding": "inplace",
        "label": "address",
        "numberOfBytes": "20"
      },
      "t_bool": {
        "encoding": "inplace",
        "label": "bool",
        "numberOfBytes": "1"
      },
      "t_bytes32": {
        "encoding": "inplace",
        "label": "bytes32",
        "numberOfBytes": "32"
      },
      "t_mapping(t_address,t_mapping(t_uint256,t_uint256))": {
        "encoding": "mapping",
        "key": "t_address",
        "label": "mapping(address => mapping(uint256 => uint256))",
        "numberOfBytes": "32",
        "value": "t_mapping(t_uint256,t_uint256)"
      },
      "t_mapping(t_bytes32,t_bool)": {
        "encoding": "mapping",
        "key": "t_bytes32",
        "label": "mapping(bytes32 => bool)",
        "numberOfBytes": "32",
        "value": "t_bool"
      },
      "t_mapping(t_uint256,t_uint256)": {
        "encoding": "mapping",
        "key": "t_uint256",
        "label": "mapping(uint256 => uint256)",
        "numberOfBytes": "32",
        "value": "t_uint256"
      },
      "t_uint256": {
        "encoding": "inplace",
        "label": "uint256",
        "numberOfBytes": "32"
      }
    }
  }
}